:100000000C9434000C9451000C9451000C947A0020
:100010000C9451000C9451000C9451000C9451001C
:100020000C9451000C9451000C9451000C9451000C
:100030000C9451000C9451000C9451000C945100FC
:100040000C9451000C9451000C9451000C945100EC
:100050000C9451000C9451000C9451000C945100DC
:100060000C9451000C94510011241FBECFEFD8E026
:10007000DEBFCDBF11E0A0E0B1E0EEEFF2E002C0E4
:1000800005900D92A630B107D9F721E0A6E0B1E0C6
:1000900001C01D92AD30B207E1F70E9446010C94F9
:1000A0007D010C94000010920B0110920601109239
:1000B0000A011092070110920C011092C1001BB8A6
:1000C0008AB18FEF8AB918B897B187B984B1886FB0
:1000D00084B985B1876085B984B1887F84B9E8E641
:1000E000F0E0808181608083EBE6F0E080818760D2
:1000F000808308951F920F920FB60F9211248F9351
:1001000018990CC081E080930901109206011092A9
:100110000A011092070110920C011FC019990EC01C
:10012000809108018823C9F080910C01811115C0CC
:10013000809106018F5F809306010FC01A990DC050
:1001400080910801882349F080910701811105C041
:1001500080910A018F5F80930A018BB381608BBB12
:100160008F910F900FBE0F901F90189580910601F0
:10017000811107C085B1877C85B988B18E7F88B928
:100180000895813051F485B1806185B985B1877D4D
:1001900085B988B18E7F88B90895823051F485B1D0
:1001A000886085B985B18F7C85B988B18E7F88B923
:1001B0000895833051F485B1806285B985B1877E19
:1001C00085B988B18E7F88B90895843051F485B19E
:1001D000877C85B988B1816088B981E08093070107
:1001E000089510920601089580910A01811104C0BA
:1001F00088B1817E88B90895813039F488B18260F0
:1002000088B988B1837E88B90895823039F488B17D
:10021000846088B988B1857E88B90895833039F4BF
:1002200088B1886088B988B1897E88B9089584309A
:1002300051F488B1806188B988B1817F88B981E043
:1002400080930C01089510920A010895809107018E
:10025000882361F085B1886385B988B1816088B9E8
:1002600088B1817E88B980EC8BB9089580910C01AA
:10027000882359F088B18E6188B985B1877C85B9AA
:1002800088B18E7F88B98EE68BB90895F8940E9464
:10029000530078940E94B6000E94F4000E94260148
:1002A000809109018130B1F7E0910B01F0E0E0505D
:1002B000FF4F80818BB980910B01853068F48F5F8F
:1002C00080930B012FEF83ED90E32150804090400D
:1002D000E1F700C00000DECF1092090110920B017F
:1002E0002FEF83ED90E3215080409040E1F700C074
:0E02F000000081E080930801CDCFF894FFCF8D
:0602FE00BAD2EA6EC0FC5A
:00000001FF
