S00D00004C616230312E73726563A7
S11300000C9434000C9451000C9451000C94BF00D7
S11300100C9451000C9451000C9451000C94510018
S11300200C9451000C9451000C9451000C94510008
S11300300C9451000C9451000C9451000C945100F8
S11300400C9451000C9451000C9451000C945100E8
S11300500C9451000C9451000C9451000C945100D8
S11300600C9451000C94510011241FBECFEFD8E022
S1130070DEBFCDBF11E0A0E0B1E0E0ECF1E002C0F2
S113008005900D92A030B107D9F721E0A0E0B1E0CE
S113009001C01D92A230B207E1F70E9472000C94D5
S11300A0DE000C940000109201011092C1001BB8F4
S11300B08AB18FEF8AB918B897B187B984B1886FBC
S11300C084B985B1876085B984B1887F84B9E8E64D
S11300D0F0E0808181608083EBE6F0E080818760DE
S11300E080830895F8940E945300789480910001CD
S11300F08130E1F78AEB8BB92FEF83ED90E3215048
S113010080409040E1F700C0000082ED8BB92FEFF2
S113011083ED90E3215080409040E1F700C000005F
S11301208AEE8BB92FEF83ED90E32150804090400D
S1130130E1F700C000008EE68BB92FEF83ED90E36A
S1130140215080409040E1F700C0000080EC8BB962
S11301502FEF83ED90E3215080409040E1F700C001
S113016000008CEF8BB92FEF83ED90E3215080409A
S11301709040E1F700C0000010920001B7CF1F9239
S11301800F920FB60F9211248F93189904C081E037
S1130190809300010AC0199904C085B18F7D85B987
S11301A004C01A9902C08CEF8BB98BB381608BBBEE
S11301B08F910F900FBE0F901F901895F894FFCF5A
S9030000FC
