S01300004C414230335F534C4156452E7372656305
S11300000C943B000C944D000C944D000C944D004A
S11300100C944D000C944D000C944D000C944D0028
S11300200C944D000C944D000C944D000C944D0018
S11300300C944D000C944D000C944D000C944D0008
S11300400C944D000C94BA000C944D000C944D008B
S11300500C944D000C94A5000C944D000C944D0090
S11300600C944D000C944D000201090110011A0179
S113007024012E01380111241FBECFEFD8E0DEBFCA
S1130080CDBF21E0A0E0B1E001C01D92A230B207D3
S1130090E1F70E9468000C9457010C940000ECE70F
S11300A0F0E01082808380818064808380818F77F8
S11300B08083808180628083EAE7F0E080818760CA
S11300C080838081886080838081806880830895B4
S11300D020E040E060E080E40E94EA008CB58068A3
S11300E08CBD789480E00E944F00EAE7F0E08081C4
S11300F08064808380917A0086FDFCCF80917900B2
S1130100809300012FEF81EE94E0215080409040D5
S1130110E1F700C0000081E00E944F00EAE7F0E050
S113012080818064808380917A0086FDFCCF8091F9
S11301307900809301012FEF81EE94E021508040FB
S11301409040E1F700C00000CDCF1F920F920FB690
S11301500F9211248F93EF93FF93EAE7F0E08081ED
S113016080618083FF91EF918F910F900FBE0F906C
S11301701F9018951F920F920FB60F9211242F9370
S11301803F934F935F936F937F938F939F93AF931B
S1130190BF93EF93FF938EB5833629F480910001CA
S11301A00E944F0106C0843621F4809101010E940F
S11301B04F01FF91EF91BF91AF919F918F917F91EB
S11301C06F915F914F913F912F910F900FBE0F90C0
S11301D01F901895E82F84FF52C084B18C6284B9B3
S11301E084B18F7E84B98CB580618CBDE7708E2F0D
S11301F090E08730910508F04BC0FC01EC5CFF4FA8
S11302000C9451018CB58C7F8CBD8DB581608DBDF6
S11302103FC08CB58C7F8CBD8DB58E7F8DBD38C0B5
S11302208CB581608CBD8CB58D7F8CBD8DB58160A6
S11302308DBD2EC08CB581608CBD8CB58D7F8CBD81
S11302408DB58E7F8DBD24C08CB58E7F8CBD8CB555
S113025082608CBD8DB581608DBD1AC08CB58E7FDA
S11302608CBD8CB582608CBD8DB58E7F8DBD10C06C
S11302708CB583608CBD8DB58E7F8DBD09C084B176
S1130280806184B984B1837D84B98CB58F7E8CBD43
S11302908CB5462B242B282B20642CBD08958EBDB1
S11302A00895EE0FFF1F0590F491E02D0994F89442
S10502B0FFCF7A
S9030000FC
