:100000000C9434000C9446000C9446000C9446006A
:100010000C945D000C9446000C9446000C94460031
:100020000C9446000C9446000C9446000C94460038
:100030000C9446000C9446000C9446000C94460028
:100040000C9446000C9446000C94A5000C944600B9
:100050000C9446000C9446000C9446000C94460008
:100060000C9446000C94460011241FBECFEFD8E03C
:10007000DEBFCDBF21E0A0E0B1E001C01D92A13004
:10008000B207E1F70E9448000C94D7000C940000DE
:10009000F8940E94B50088B18F6388B987B1807CDD
:1000A00087B9E8E6F0E0808182608083ECE6F0E0EA
:1000B00080818F6380837894FFCF1F920F920FB659
:1000C0000F9211242F933F934F935F936F937F93DE
:1000D0008F939F93AF93BF93EF93FF93309904C097
:1000E00081E30E94D0001DC0319904C082E30E94C8
:1000F000D00017C0329904C083E30E94D00011C021
:10010000339904C084E30E94D0000BC0349904C02A
:1001100085E30E94D00005C0359903C086E30E94A4
:10012000D0008BB382608BBBFF91EF91BF91AF91F9
:100130009F918F917F916F915F914F913F912F91FF
:100140000F900FBE0F901F9018951F920F920FB631
:100150000F9211248F938091C600809300018F919C
:100160000F900FBE0F901F9018958AB18E7F8AB99D
:100170008AB182608AB91092C000E1ECF0E010828E
:10018000808188698083E2ECF0E010828081866063
:10019000808387E690E09093C5008093C400089523
:1001A0009091C00095FFFCCF8093C6000895F8940D
:0201B000FFCF7F
:00000001FF
