S00D00004C616230322E73726563A6
S11300000C9434000C9451000C9451000C94510045
S11300100C9451000C9451000C9451000C94510018
S11300200C9451000C9451000C9451000C94510008
S11300300C9451000C9451000C9451000C945100F8
S11300400C9451000C9451000C9478020C945100BF
S11300500C9451000C9463020C9451000C945100C4
S11300600C9451000C94510011241FBECFEFD8E022
S1130070DEBFCDBF11E0A0E0B1E0E6EFFEE002C0DC
S113008005900D92AE32B107D9F721E0AEE2B1E0AE
S113009001C01D92A533B207E1F70E94E6010C945A
S11300A079070C940000ECE7F0E0108280838081F3
S11300B08064808380818F77808380818062808365
S11300C0EAE7F0E0808187608083808188608083B4
S11300D0808180688083089580FF04C09BB1906113
S11300E09BB903C09BB19F7E9BB981FF04C09BB1A8
S11300F090629BB903C09BB19F7D9BB982FF04C0F2
S11301009BB190649BB903C09BB19F7B9BB983FF58
S113011004C09BB190689BB903C09BB19F779BB906
S113012084FF04C095B1916095B903C095B19E7FD9
S113013095B985FF04C095B1926095B903C095B196
S11301409D7F95B986FF04C095B1946095B903C0AD
S113015095B19B7F95B9882324F485B1886085B9CE
S1130160089585B1877F85B908959BB19B7F9BB91D
S11301700E946C008BB188608BB98FE79EE3019776
S1130180F1F700C000008BB1877F8BB98FE79EE346
S11301900197F1F700C00000089584B18F6084B91D
S11301A015B88AB18C6F8AB91BB88BB1837F8BB9B0
S11301B02FEF89EF90E0215080409040E1F700C09C
S11301C0000080E30E94B5008FE19EE40197F1F7FF
S11301D000C0000080E30E94B5008FE19EE4019717
S11301E0F1F700C0000080E30E94B5008FE39CE9B2
S11301F00197F1F700C0000088E30E94B50088E091
S11302000E94B50081E00E94B50086E00E94B5001E
S11302108CE00E94B50008959BB194609BB90E9444
S11302206C008BB188608BB98FE79EE30197F1F77F
S113023000C000008BB1877F8BB98FE79EE30197E5
S1130240F1F700C0000008950F931F93CF93DF933D
S11302508C01C0E0D0E003C00E940C012196F8019B
S1130260EC0FFD1F80818111F7CFDF91CF911F919A
S11302700F910895811105C080E8860F0E94B50092
S11302800895813021F480EC860F0E94B500089512
S1130290CF92DF92EF92FF92CF93DF93682F70E0BB
S11302A080E090E00E943E0321EA30EA40EA5CE309
S11302B00E94A2036B017C0160932E0170932F01B5
S11302C080933001909331010E940603C62FD72FEB
S11302D020E030E04AE754E4C701B6010E94A203DB
S11302E00E940603CB0168EE73E00E9437049F93DB
S11302F08F93DF93CF938DE091E09F938F931F9221
S113030085E08F9388E091E09F938F930E945F0430
S11303108DB79EB70A960FB6F8949EBF0FBE8DBFD9
S1130320DF91CF91FF90EF90DF90CF900895CF921F
S1130330DF92EF92FF92CF93DF93682F70E080E01B
S113034090E00E943E0321EA30EA40EA5CE30E9426
S1130350A2036B017C0160932E0170932F018093A3
S11303603001909331010E940603C62FD72F20E05D
S113037030E04AE754E4C701B6010E94A2030E9498
S11303800603CB0168EE73E00E9437049F938F93BA
S1130390DF93CF938DE091E09F938F931F9285E03D
S11303A08F9383E091E09F938F930E945F048DB7B6
S11303B09EB70A960FB6F8949EBF0FBE8DBFDF910D
S11303C0CF91FF90EF90DF90CF900895109233017A
S11303D010923201F8940E94CD000E94D3027894C6
S11303E061E080E00E943A0183E50E940C0181E310
S11303F00E940C018AE30E940C0166E080E00E94E6
S11304003A0183E50E940C0182E30E940C018AE315
S11304100E940C016BE080E00E943A0183E50E9497
S11304200C0183E30E940C018AE30E940C0187E023
S11304300E945300EAE7F0E0808180648083809129
S11304407A0086FDFCCF809179000E94480161E02A
S113045081E00E943A0188E091E00E94240186E054
S11304600E945300EAE7F0E08081806480838091F9
S11304707A0086FDFCCF809179000E94970166E0A6
S113048081E00E943A0183E091E00E9424016BE044
S113049081E00E943A0180E091E00E942401C7CFEC
S11304A09F938F9386E191E09F938F9380E091E0F7
S11304B09F938F930E948F040F900F900F900F9033
S11304C00F900F9008951F920F920FB60F92112460
S11304D08F93EF93FF93EAE7F0E08081806180835C
S11304E0FF91EF918F910F900FBE0F901F90189571
S11304F01F920F920FB60F9211242F933F934F9395
S11305005F936F937F938F939F93AF93BF93EF9377
S1130510FF938AE00E94EE0289E191E00E94F502D5
S113052088E091E00E94F5028AE00E94EE0283E2F4
S113053091E00E94F50283E091E00E94F50280912F
S1130540C60080933401809134018B3261F4809130
S113055032019091330101969093330180933201DB
S11305600E9450020FC0809134018D3259F4809161
S113057032019091330101979093330180933201BA
S11305800E945002FF91EF91BF91AF919F918F9183
S11305907F916F915F914F913F912F910F900FBE7B
S11305A00F901F9018958AB18E7F8AB98AB18260A4
S11305B08AB91092C000E1ECF0E010828081886971
S11305C08083E2ECF0E0108280818660808387E69D
S11305D090E09093C5008093C40008959091C0006A
S11305E095FFFCCF8093C6000895AC0120E007C0BE
S11305F09091C00095FFFCCF3093C6002F5FFA01A5
S1130600E20FF11D30813111F3CF08950E940D03E3
S11306106894B1110C949C0308950E94810388F09E
S11306209F5798F0B92F9927B751B0F0E1F0660FB2
S1130630771F881F991F1AF0BA95C9F714C0B130F3
S113064091F00E949B03B1E008950C949B03672FE3
S1130650782F8827B85F39F0B93FCCF38695779522
S11306606795B395D9F73EF490958095709561950B
S11306707F4F8F4F9F4F0895E89409C097FB3EF436
S113068090958095709561957F4F8F4F9F4F9923DB
S1130690A9F0F92F96E9BB279395F6958795779559
S11306A06795B795F111F8CFFAF4BB0F11F460FF19
S11306B01BC06F5F7F4F8F4F9F4F16C0882311F071
S11306C096E911C0772321F09EE8872F762F05C085
S11306D0662371F096E8862F70E060E02AF09A9520
S11306E0660F771F881FDAF7880F9695879597F915
S11306F0089557FD9058440F551F59F05F3F71F00E
S11307004795880F97FB991F61F09F3F79F0879574
S11307100895121613061406551FF2CF4695F1DFFD
S113072008C0161617061806991FF1CF869571058D
S1130730610508940895E894BB2766277727CB01C1
S113074097F908950E94B5030C9426040E94180496
S113075038F00E941F0420F0952311F00C940F042C
S11307600C94150411240C949C030E94790370F3D7
S1130770959FC1F3950F50E0551F629FF001729F42
S1130780BB27F00DB11D639FAA27F00DB11DAA1F51
S1130790649F6627B00DA11D661F829F2227B00D9E
S11307A0A11D621F739FB00DA11D621F839FA00D29
S11307B0611D221F749F3327A00D611D231F849F79
S11307C0600D211D822F762F6A2F11249F575040D0
S11307D09AF0F1F088234AF0EE0FFF1FBB1F661F4B
S11307E0771F881F91505040A9F79E3F510580F014
S11307F00C940F040C949C035F3FE4F3983ED4F3F1
S1130800869577956795B795F795E7959F5FC1F7B7
S1130810FE2B880F911D9695879597F9089597F962
S11308209F6780E870E060E008959FEF80EC089592
S113083000240A94161617061806090608950024BB
S11308400A9412161306140605060895092E039435
S1130850000C11F4882352F0BB0F40F4BF2B11F4A9
S113086060FF04C06F5F7F4F8F4F9F4F089597FBCA
S1130870072E16F4009407D077FD09D00E944B048C
S113088007FC05D03EF4909581959F4F089570958F
S113089061957F4F0895AA1BBB1B51E107C0AA1F96
S11308A0BB1FA617B70710F0A61BB70B881F991F0D
S11308B05A95A9F780959095BC01CD010895AEE0B5
S11308C0B0E0E5E6F4E00C9450070D891E898F89A9
S11308D0988D26E02C831A83098397FF02C080E059
S11308E090E801979E838D83AE01455E5F4F698DCD
S11308F07A8DCE0101960E94B1044D815E8157FD2F
S11309000AC02F813885421753070CF49A01F80165
S1130910E20FF31F10822E96E4E00C946C07AEE015
S1130920B0E0E5E9F4E00C9450070D891E8986E0F7
S11309308C831A8309838FEF9FE79E838D83AE0197
S1130940475E5F4F6F89788DCE0101960E94B10496
S1130950EF81F885E00FF11F10822E96E4E00C94ED
S11309606C07ABE0B0E0E7EBF4E00C9442076C01F9
S11309707B018A01FC0117821682838181FFCCC12D
S1130980CE0101963C01F6019381F70193FD859117
S113099093FF81917F01882309F4BAC1853239F428
S11309A093FD859193FF81917F01853229F4B601EE
S11309B090E00E94A806E7CF912C212C312CFFE176
S11309C0F315D8F08B3279F038F4803279F0833231
S11309D0A1F4232D20611DC08D3261F0803369F4B0
S11309E0232D216016C0832D8260382EE32DE46010
S11309F03E2E2AC0F32DF8601DC037FC2DC020ED1B
S1130A00280F2A3040F08E32B9F436FC81C1232DF0
S1130A102064322E19C036FE06C08AE0989E200D4E
S1130A201124922E11C0EAE02E9E200D1124222EB4
S1130A30F32DF0623F2E08C08C3621F4832D80689C
S1130A40382E02C0883641F4F70193FD859193FF57
S1130A5081917F018111B3CF982F9F7D955493305D
S1130A6028F40C5F1F4F9FE399830DC0833631F048
S1130A70833771F0833509F059C021C0F8018081B2
S1130A8089830E5F1F4F88248394912C530113C0D4
S1130A902801F2E04F0E511CF801A080B18036FE0F
S1130AA003C0692D70E002C06FEF7FEFC5010E94A3
S1130AB09D064C018201F32DFF773F2E16C02801BD
S1130AC022E0420E511CF801A080B18036FE03C022
S1130AD0692D70E002C06FEF7FEFC5010E9492069E
S1130AE04C01F32DF0683F2E820133FC1BC0822D94
S1130AF090E088169906B0F4B60180E290E00E9476
S1130B00A8062A94F4CFF50137FC859137FE81912C
S1130B105F01B60190E00E94A80621102A9421E00A
S1130B20821A91088114910471F7E8C0843611F097
S1130B30893641F5F80137FE07C0608171818281F1
S1130B4093810C5F1F4F08C060817181072E000CD8
S1130B50880B990B0E5F1F4FF32DFF763F2E97FFE7
S1130B6009C090958095709561957F4F8F4F9F4FE9
S1130B70F0683F2E2AE030E0A3010E94E406882EAC
S1130B80861845C0853731F4232D2F7EB22E2AE0F6
S1130B9030E025C0932D997FB92E8F36C1F018F41B
S1130BA0883579F0B5C0803719F0883721F0B0C0A6
S1130BB0E92FE061BE2EB4FE0DC0FB2DF460BF2E04
S1130BC009C034FE0AC0292F2660B22E06C028E0D0
S1130BD030E005C020E130E002C020E132E0F8015D
S1130BE0B7FE07C060817181828193810C5F1F4FC2
S1130BF006C06081718180E090E00E5F1F4FA30109
S1130C000E94E406882E8618FB2DFF773F2E36FEC1
S1130C100DC0232D2E7FA22E891458F434FE0BC050
S1130C2032FC09C0832D8E7EA82E05C0B82CA32CBF
S1130C3003C0B82C01C0B92CA4FE0FC0FE01E80DFE
S1130C40F11D8081803321F49A2D997EA92E09C04B
S1130C50A2FE06C0B394B39404C08A2D867809F02A
S1130C60B394A3FC11C0A0FE06C0B21488F4280CEF
S1130C70922C9B180EC0B21460F4B60180E290E08E
S1130C800E94A806B394F7CFB21418F42B1802C02C
S1130C90982C212CA4FE10C0B60180E390E00E94A1
S1130CA0A806A2FE17C0A1FC03C088E790E002C01A
S1130CB088E590E0B6010CC08A2D867859F0A1FE33
S1130CC002C08BE201C080E2A7FC8DE2B60190E095
S1130CD00E94A806891438F4B60180E390E00E94CB
S1130CE0A8069A94F7CF8A94F301E80DF11D808148
S1130CF0B60190E00E94A8068110F5CF222009F4E5
S1130D0042CEB60180E290E00E94A8062A94F6CF73
S1130D10F6018681978102C08FEF9FEF2B96E2E167
S1130D200C945E07FC010590615070400110D8F7E7
S1130D30809590958E0F9F1F0895FC01615070401F
S1130D4001900110D8F7809590958E0F9F1F0895FC
S1130D500F931F93CF93DF93FB01238121FD03C0E6
S1130D608FEF9FEF2CC022FF16C04681578124814C
S1130D7035814217530744F4A081B1819D012F5F4F
S1130D803F4F318320838C93268137812F5F3F4FE0
S1130D903783268314C08B01EC01FB010084F185A9
S1130DA0E02D0995892BE1F6D80116968D919C9139
S1130DB01797019617969C938E931697CE01DF9101
S1130DC0CF911F910F910895FA01AA27283051F16C
S1130DD0203181F1E8946F936E7F6E5F7F4F8F4F68
S1130DE09F4FAF4FB1E03ED0B4E03CD0670F781FC7
S1130DF0891F9A1FA11D680F791F8A1F911DA11DAC
S1130E006A0F711D811D911DA11D20D009F46894E4
S1130E103F912AE0269F11243019305D3193DEF68C
S1130E20CF010895462F4770405D4193B3E00FD042
S1130E30C9F7F6CF462F4F70405D4A3318F0495D2D
S1130E4031FD4052419302D0A9F7EACFB4E0A69510
S1130E509795879577956795BA95C9F70097610532
S1130E60710508959B01AC010A2E06945795479588
S1130E7037952795BA95C9F7620F731F841F951F7D
S1130E80A01D08952F923F924F925F926F927F928E
S1130E908F929F92AF92BF92CF92DF92EF92FF9286
S1130EA00F931F93CF93DF93CDB7DEB7CA1BDB0B32
S1130EB00FB6F894DEBF0FBECDBF09942A883988D7
S1130EC048885F846E847D848C849B84AA84B984DE
S1130ED0C884DF80EE80FD800C811B81AA81B981EA
S1130EE0CE0FD11D0FB6F894DEBF0FBECDBFED01FE
S1090EF00895F894FFCF01
S1130EF63000003000000000300000000025642EA1
S1130F0625322E32640025640056616C6F722053BC
S1110F16313A0056616C6F722053323A00007B
S9030000FC
