:100000000C9434000C943E000C943E000C943E0082
:100010000C943E000C943E000C943E000C943E0068
:100020000C943E000C943E000C943E000C943E0058
:100030000C943E000C943E000C943E000C943E0048
:100040000C943E000C943E000C943E000C943E0038
:100050000C943E000C943E000C943E000C943E0028
:100060000C943E000C943E0011241FBECFEFD8E04C
:10007000DEBFCDBF0E941D010C9430010C94000026
:1000800080FF04C09BB190619BB903C09BB19F7E70
:100090009BB981FF04C09BB190629BB903C09BB127
:1000A0009F7D9BB9982F937021F09BB190649BB971
:1000B00003C09BB19F7B9BB982FF04C09BB190683A
:1000C0009BB903C09BB19F779BB9982F957021F086
:1000D00095B1916095B903C095B19E7F95B9982F60
:1000E000967021F095B1926095B903C095B19D7F4E
:1000F00095B9982F977021F095B1946095B903C088
:1001000095B19B7F95B983FF04C085B1886085B99F
:10011000089585B1877F85B908959BB19B7F9BB971
:100120000E9440008BB188608BB98FE79EE30197F6
:10013000F1F700C000008BB1877F8BB9089584B1BF
:100140008F6084B915B88CEF8AB91BB880E00E9423
:100150008D002FEF89EF90E0215080409040E1F733
:1001600000C0000080E30E948D008FE19EE40197B3
:10017000F1F700C0000080E30E948D008FE19EE453
:100180000197F1F700C0000080E30E948D008FE12D
:100190009EE40197F1F700C0000088E30E948D0003
:1001A0008FE99FE00197F1F700C0000088E00E940E
:1001B0008D008FE99FE00197F1F700C0000081E01A
:1001C0000E948D008FE99FE00197F1F700C00000C9
:1001D00085E00E948D008CE00E948D0008959BB107
:1001E00094609BB90E9440008BB188608BB98FE707
:1001F0009EE30197F1F700C000008BB1877F8BB9B8
:100200000895CF93613059F48158C82FCF708295EB
:100210008F700E948D008C2F0E948D000CC0623068
:1002200051F48154C82FCF7082958F700E948D0039
:100230008C2F0E948D00CF9108950E949F0061E055
:1002400081E00E94010188E40E94EF008FE60E9495
:10025000EF008CE60E94EF0081E60E94EF00FFCFE6
:04026000F894FFCF40
:00000001FF
