S00D00004C616230322E73726563A6
S11300000C9470000C948D000C948D000C948D0055
S11300100C948D000C948D000C948D000C948D0028
S11300200C948D000C948D000C948D000C948D0018
S11300300C948D000C948D000C948D000C948D0008
S11300400C948D000C948D000C948D000C948D00F8
S11300500C948D000C9477030C948D000C948D00FB
S11300600C948D000C948D00AF01B401B901BE0154
S1130070C301C801CD01D201D701DC01EA01EF01BE
S1130080F401F901FE01030208020D021202170233
S1130090240229022E02330238023D0242024702A0
S11300A04C025102810286028B02900295029A024E
S11300B09F02A402A902AE02BC02C102C602CB0284
S11300C0D002D502DA02DF02E402E902F602FB0200
S11300D0000305030A030F03140319031E03230378
S11300E011241FBECFEFD8E0DEBFCDBF11E0A0E0EA
S11300F0B1E0E8E7F7E002C005900D92AA30B1073D
S1130100D9F721E0AAE0B1E001C01D92A631B207FF
S1130110E1F70E9428030C94BA030C940000ECE766
S1130120F0E01082808380818064808380818F7777
S11301308083808180628083EAE7F0E08081876049
S11301408083808188608083808180688083089533
S113015080FF04C09BB190619BB903C09BB19F7E9B
S11301609BB981FF04C09BB190629BB903C09BB152
S11301709F7D9BB982FF04C09BB190649BB903C06F
S11301809BB19F7B9BB983FF04C09BB190689BB9D3
S113019003C09BB19F779BB984FF04C095B1916064
S11301A095B903C095B19E7F95B985FF04C095B1FB
S11301B0926095B903C095B19D7F95B986FF04C03F
S11301C095B1946095B903C095B19B7F95B9882387
S11301D024F485B1886085B9089585B1877F85B990
S11301E008959BB19B7F9BB90E94A8008BB1886046
S11301F08BB98FE79EE30197F1F700C000008BB144
S1130200877F8BB98FE79EE30197F1F700C0000069
S1130210089584B18F6084B915B88AB18C6F8AB996
S11302201BB88BB1837F8BB92FEF89EF90E02150FE
S113023080409040E1F700C0000080E30E94F1009C
S11302408FE19EE40197F1F700C0000080E30E9473
S1130250F1008FE19EE40197F1F700C0000080E314
S11302600E94F1008FE39CE90197F1F700C00000C0
S113027088E30E94F10088E00E94F10081E00E947E
S1130280F10086E00E94F1008CE00E94F1000895E4
S11302909BB194609BB90E94A8008BB188608BB914
S11302A08FE79EE30197F1F700C000008BB1877FD1
S11302B08BB98FE79EE30197F1F700C00000089522
S11302C00F931F93CF93DF938C01C0E0D0E003C062
S11302D00E9448012196F801EC0FFD1F80818111D5
S11302E0F7CFDF91CF911F910F910895811105C030
S11302F080E8860F0E94F1000895813021F480EC9B
S1130300860F0E94F1000895382F49E2849F412D01
S11303101124E42FE295EF70E0930B0190E024E6C2
S1130320E29F8019910911246AE070E00E948C0315
S1130330262F60930A01660F962F990F990F690F64
S113034084E6E89F600D1124832F861B809310019F
S11303504E2F50E0FA01EC5CFF4F0C94A0039091F7
S1130360000190930C012CC09091010190930C0119
S113037027C09091020190930C0122C09091030137
S113038090930C011DC09091040190930C0118C02E
S11303909091050190930C0113C0909106019093E4
S11303A00C010EC09091070190930C0109C090912B
S11303B0080190930C0104C09091090190930C01E1
S11303C0422F50E04A305105B0F5FA01E25CFF4F8C
S11303D00C94A0039091000190930D012CC0909176
S11303E0010190930D0127C09091020190930D019A
S11303F022C09091030190930D011DC090910401BE
S113040090930D0118C09091050190930D0113C0B4
S11304109091060190930D010EC090910701909365
S11304200D0109C09091080190930D0104C09091B1
S1130430090190930D0190E08A309105B0F5FC011B
S1130440E85BFF4F0C94A0038091000180930E01A0
S113045008958091010180930E0108958091020115
S113046080930E0108958091030180930E010895F5
S11304708091040180930E01089580910501809379
S11304800E0108958091060180930E0108958091D4
S1130490070180930E0108958091080180930E0155
S11304A008958091090180930E010895382F49E23F
S11304B0849F412D1124E42FE295EF70E0930B010A
S11304C090E024E6E29F8019910911246AE070E02B
S11304D00E948C03262F60930A01660F962F990FB2
S11304E0990F690F84E6E89F600D1124832F861B02
S11304F0809310014E2F50E0FA01EE5AFF4F0C94F6
S1130500A00390910001909311012CC090910101DE
S11305109093110127C0909102019093110122C080
S113052090910301909311011DC090910401909347
S1130530110118C0909105019093110113C090917D
S11305400601909311010EC090910701909311013F
S113055009C0909108019093110104C09091090180
S113056090931101422F50E04A305105B0F5FA0141
S1130570E45AFF4F0C94A003909100019093120150
S11305802CC0909101019093120127C09091020117
S11305909093120122C090910301909312011DC007
S11305A0909104019093120118C0909105019093C9
S11305B0120113C090910601909312010EC0909104
S11305C007019093120109C09091080190931201C0
S11305D004C0909109019093120190E08A30910532
S11305E0B0F5FC01EA59FF4F0C94A003809100017F
S11305F080930E0108958091010180931301089561
S113060080910201809313010895809103018093E6
S1130610130108958091040180931301089580913A
S113062005018093130108958091060180931301BD
S11306300895809107018093130108958091080122
S11306408093130108958091090180931301089503
S1130650F8940E940901789461E080E00E94760198
S113066083E50E94480181E30E9448018AE30E94D5
S1130670480165E080E00E94760183E50E9448011C
S113068082E30E9448018AE30E94480187E00E94B5
S11306908F00EAE7F0E080818064808380917A00B3
S11306A086FDFCCF809179000E94840161E081E0A5
S11306B00E9476018CE091E00E94600186E00E9435
S11306C08F00EAE7F0E080818064808380917A0083
S11306D086FDFCCF809179000E94560265E081E09E
S11306E00E94760181E191E00E946001CFCF1F92C8
S11306F00F920FB60F9211248F93EF93FF93EAE7B3
S1130700F0E0808180618083FF91EF918F910F9061
S11307100FBE0F901F90189597FB072E16F40094A8
S113072007D077FD09D00E94A60307FC05D03EF44C
S1130730909581959F4F0895709561957F4F089589
S1130740EE0FFF1F0590F491E02D0994AA1BBB1B2B
S113075051E107C0AA1FBB1FA617B70710F0A61BBD
S1130760B70B881F991F5A95A9F780959095BC01DE
S10B0770CD010895F894FFCFB8
S10D07783031323334353637383966
S9030000FC
