:100000000C9434000C9446000C9446000C9446006A
:100010000C9446000C9446000C9446000C94460048
:100020000C9446000C9446000C9446000C94460038
:100030000C9446000C9446000C9446000C94460028
:100040000C9446000C9446000C9446000C94460018
:100050000C9446000C947B000C9446000C944600D3
:100060000C9490000C94460011241FBECFEFD8E0F2
:10007000DEBFCDBF21E0A0E0B1E001C01D92A13004
:10008000B207E1F70E9461000C94E8000C940000B4
:10009000ECE7F0E01082808380818064808380813F
:1000A0008F778083808180628083EAE7F0E08081BF
:1000B000876080838081886080838081806880837E
:1000C000089580E30E94DD00789480E00E9448005B
:1000D000EAE7F0E080818064808380917A0086FD89
:1000E000FCCF2FEF89EF90E0215080409040E1F766
:1000F00000C00000EACF1F920F920FB60F9211249A
:100100008F93EF93FF93EAE7F0E080818061808333
:10011000FF91EF918F910F900FBE0F901F90189548
:100120001F920F920FB60F9211248F93EF93FF93AC
:100130008091B9008C7F8039C9F038F4803781F024
:100140008038A1F0803661F50BC0883BC9F018F407
:10015000883AB1F025C0803CE9F0883CD9F020C055
:10016000ECEBF0E08081806880831FC08091BB0051
:1001700080930001ECEBF0E080818068808315C003
:10018000809179008093BB00ECEBF0E08081856C7E
:1001900080830BC0ECEBF0E08081846C808305C031
:1001A000ECEBF0E0808180698083FF91EF918F918B
:1001B0000F900FBE0F901F90189597B19F7C97B925
:1001C000880F81608093BA0085E48093BC00089515
:0401D000F894FFCFD1
:00000001FF
