:100000000C943B000C944D000C944D000C944D004E
:100010000C944D000C944D000C944D000C944D002C
:100020000C944D000C944D000C944D000C944D001C
:100030000C944D000C944D000C944D000C944D000C
:100040000C944D000C944D000C944F000C944D00FA
:100050000C944D000C944D000C944D000C944D00EC
:100060000C944D000C944D0006010D0114011E016D
:10007000280132013C0111241FBECFEFD8E0DEBFC2
:10008000CDBF21E0A0E0B1E001C01D92AD30B207CC
:10009000E1F70E94BD000C9482010C9400001F92B5
:1000A0000F920FB60F9211248F93809104018F5FEE
:1000B00080930401813029F48091C60080930A0165
:1000C0000DC0823029F48091C6008093030106C0E0
:1000D0008091C60080930201109204018F910F90CD
:1000E0000FBE0F901F90189580FF04C098B19160CB
:1000F00098B903C098B19E7F98B981FF04C098B1A8
:10010000926098B903C098B19D7F98B982FF04C0EE
:1001100098B1946098B903C098B19B7F98B983FF58
:1001200004C098B1986098B903C098B1977F98B906
:1001300084FF04C098B1906198B903C098B19F7EC4
:1001400098B985FF04C098B1906298B903C098B17E
:100150009F7D98B986FF04C09BB198609BB903C08E
:100160009BB1977F9BB9882324F48BB184608BB9B2
:1001700008958BB18B7F8BB90895F8941092040188
:1001800087B18F6387B98AB18C618AB91BB818B8F7
:100190000E945A0120E040E060E083E50E94EE000A
:1001A000789485B18B7F85B983E60E9453010E94C4
:1001B0005501809300010E947400809100010E940B
:1001C000750185B1846085B92FEF84E39CE02150EF
:1001D00080409040E1F700C00000E3CFE82F84FFAB
:1001E00052C084B18C6284B984B18F7E84B98CB5DD
:1001F00080618CBDE7708E2F90E08730910508F00C
:100200004BC0FC01EC5CFF4F0C947C018CB58C7FE7
:100210008CBD8DB581608DBD3FC08CB58C7F8CBD94
:100220008DB58E7F8DBD38C08CB581608CBD8CB591
:100230008D7F8CBD8DB581608DBD2EC08CB58160EC
:100240008CBD8CB58D7F8CBD8DB58E7F8DBD24C052
:100250008CB58E7F8CBD8CB582608CBD8DB5816078
:100260008DBD1AC08CB58E7F8CBD8CB582608CBD67
:100270008DB58E7F8DBD10C08CB583608CBD8DB566
:100280008E7F8DBD09C084B1806184B984B1837DC6
:1002900084B98CB58F7E8CBD8CB5462B242B282B36
:1002A00020642CBD08958EBD08950DB407FEFDCFCA
:1002B0008EB508958AB18E7F8AB98AB182608AB973
:1002C0001092C000E1ECF0E01082808188698083A8
:1002D000E2ECF0E0108280818660808387E690E027
:1002E0009093C5008093C40008959091C00095FF3D
:1002F000FCCF8093C6000895EE0FFF1F0590F49188
:08030000E02D0994F894FFCFF1
:00000001FF
