:100000000C943B000C9458000C9458000C9458002D
:100010000C9458000C9458000C9458000C94580000
:100020000C9458000C9458000C9458000C945800F0
:100030000C9458000C9458000C9458000C945800E0
:100040000C9458000C9458000C9474000C945800B4
:100050000C9458000C9458000C9458000C945800C0
:100060000C9458000C94580073017A0181018B01A3
:1000700095019F01A90111241FBECFEFD8E0DEBF7B
:10008000CDBF11E0A0E0B1E0E4E0F4E002C00590F3
:100090000D92A031B107D9F721E0A0E1B1E001C094
:1000A0001D92AE31B207E1F70E9408010C940002E4
:1000B0000C940000E4E6E89F9001E99F300D1124C4
:1000C000CB01880F991F660F771F660F771F660F8A
:1000D000771F680F791FC901860F971F840F951F1F
:1000E000089590E0C09708951F920F920FB60F9257
:1000F00011242F933F934F935F936F937F938F932D
:100100009F93AF93BF93EF93FF93809115018F5F00
:1001100080931501813029F48091C60080931B01E2
:100120001DC0823029F48091C6008093140116C04E
:100130008091C600809313011092150180E091E038
:100140000E94E901809111010E94E20188E091E0A2
:100150000E94E901809110010E94E201FF91EF915C
:10016000BF91AF919F918F917F916F915F914F91CF
:100170003F912F910F900FBE0F901F90189580FF09
:1001800004C098B1916098B903C098B19E7F98B9A6
:1001900081FF04C098B1926098B903C098B19D7F67
:1001A00098B982FF04C098B1946098B903C098B11F
:1001B0009B7F98B983FF04C098B1986098B903C039
:1001C00098B1977F98B984FF04C098B1906198B9AD
:1001D00003C098B19F7E98B985FF04C098B1906222
:1001E00098B903C098B19F7D98B986FF04C09BB1B0
:1001F00098609BB903C09BB1977F9BB9882324F477
:100200008BB184608BB908958BB18B7F8BB90895C6
:10021000F8941092150187B18F6387B98AB18C6108
:100220008AB91BB818B80E94C70120E040E060E01E
:1002300083E50E945B01789485B18B7F85B983E665
:100240000E94C0010E94C2018093110184E60E94B5
:10025000C0010E94C2018093100180911B010E9485
:10026000710090931D0180931C01809114010E94E4
:1002700071009093170180931601809113010E94E1
:1002800071009093190180931801409118015091C9
:100290001901609116017091170180911C019091D4
:1002A0001D010E945A00809312010E94BF0085B177
:1002B000846085B9C1CFE82F84FF52C084B18C62BD
:1002C00084B984B18F7E84B98CB580618CBDE770B0
:1002D0008E2F90E08730910508F04BC0FC01EC5C5C
:1002E000FF4F0C94FA018CB58C7F8CBD8DB581606D
:1002F0008DBD3FC08CB58C7F8CBD8DB58E7F8DBD87
:1003000038C08CB581608CBD8CB58D7F8CBD8DB5B2
:1003100081608DBD2EC08CB581608CBD8CB58D7F0C
:100320008CBD8DB58E7F8DBD24C08CB58E7F8CBD70
:100330008CB582608CBD8DB581608DBD1AC08CB5C9
:100340008E7F8CBD8CB582608CBD8DB58E7F8DBD52
:1003500010C08CB583608CBD8DB58E7F8DBD09C0FE
:1003600084B1806184B984B1837D84B98CB58F7E7A
:100370008CBD8CB5462B242B282B20642CBD0895D6
:100380008EBD08950DB407FEFDCF8EB508958AB1D8
:100390008E7F8AB98AB182608AB91092C000E1EC7E
:1003A000F0E01082808188698083E2ECF0E01082C6
:1003B00080818660808387E690E09093C50080937B
:1003C000C40008959091C00095FFFCCF8093C600B3
:1003D0000895AC0120E007C09091C00095FFFCCFCC
:1003E0003093C6002F5FFA01E20FF11D3081311109
:1003F000F3CF0895EE0FFF1F0590F491E02D0994BF
:04040000F894FFCF9E
:100404000A20504F54313A000A20504F54323A00D7
:00000001FF
