S01400004C616230345F4D61737465722E73726563D2
S11300000C9434000C9451000C9451000C94510045
S11300100C9451000C9451000C9451000C94510018
S11300200C9451000C9451000C9451000C94510008
S11300300C9451000C9451000C9451000C945100F8
S11300400C9451000C9451000C9451000C945100E8
S11300500C9451000C9451000C9451000C945100D8
S11300600C9451000C94510011241FBECFEFD8E022
S1130070DEBFCDBF11E0A0E0B1E0E6E3FEE002C0E8
S113008005900D92A231B107D9F721E0A2E1B1E0C8
S113009001C01D92AC31B207E1F70E9496010C94A5
S11300A019070C94000080FF04C09BB190619BB9B8
S11300B003C09BB19F7E9BB981FF04C09BB190623A
S11300C09BB903C09BB19F7D9BB982FF04C09BB1C8
S11300D090649BB903C09BB19F7B9BB983FF04C011
S11300E09BB190689BB903C09BB19F779BB984FF78
S11300F004C095B1916095B903C095B19E7F95B93F
S113010085FF04C095B1926095B903C095B19D7FF8
S113011095B986FF04C095B1946095B903C095B1B3
S11301209B7F95B9882324F485B1886085B90895A7
S113013085B1877F85B908959BB19B7F9BB90E9448
S113014053008BB188608BB98FE79EE30197F1F779
S113015000C000008BB1877F8BB98FE79EE30197C6
S1130160F1F700C00000089584B18F6084B915B818
S11301708AB18C6F8AB91BB88BB1837F8BB92FEF8F
S113018089EF90E0215080409040E1F700C00000EA
S113019080E30E949C008FE19EE40197F1F700C088
S11301A0000080E30E949C008FE19EE40197F1F738
S11301B000C0000080E30E949C008FE39CE901974B
S11301C0F1F700C0000088E30E949C0088E00E94D0
S11301D09C0081E00E949C0086E00E949C008CE0D0
S11301E00E949C0008959BB194609BB90E945300A7
S11301F08BB188608BB98FE79EE30197F1F700C05C
S113020000008BB1877F8BB98FE79EE30197F1F7ED
S113021000C0000008950F931F93CF93DF938C01C8
S1130220C0E0D0E003C00E94F3002196F801EC0F77
S1130230FD1F80818111F7CFDF91CF911F910F9125
S11302400895811105C080E8860F0E949C000895DE
S1130250813021F480EC860F0E949C000895CF9297
S1130260DF92EF92FF92CF93DF93682F70E080E0EC
S113027090E00E94BC0221EA30EA40EA5CE30E947A
S113028020036B017C01609313017093140180932C
S11302901501909316010E948402C62FD72F20E0E7
S11302A030E04AE754E4C701B6010E9420030E94EB
S11302B08402CB0168EE73E00E94B5039F938F9391
S11302C0DF93CF9385E091E09F938F931F9285E016
S11302D08F9380E091E09F938F930E94FF038DB7EB
S11302E09EB70A960FB6F8949EBF0FBE8DBFDF91DE
S11302F0CF91FF90EF90DF90CF900895E9E1F1E086
S113030023E0DF011D922A95E9F79F938F938EE0F6
S113031091E09F938F93FF93EF930E942F040F908C
S11303200F900F900F900F900F90089584B18062FA
S113033084B9F8940E94B40048EC50E060E070E0A6
S113034084E00E94E201789463E080E00E9421014D
S113035083E50E94F30081E30E94F3008AE30E9494
S1130360F3006AE080E00E94210183E50E94F3002B
S113037082E30E94F3008AE30E94F30067E171E0E4
S113038080E30E943C02809318010E942F0163E0E5
S113039081E00E94210180E091E00E940B0167E16D
S11303A071E080E40E943C028093120190E00E947C
S11303B07E016AE081E00E94210189E191E00E94CE
S11303C00B01DCCFCF93C82F9A01AB0187B18F7C8F
S11303D087B960E074E284EF90E00E94C903CA0127
S11303E0B90160517109810991092C2F30E0220F64
S11303F0331F032E000C440B550B0E94C90320939A
S1130400B800C43079F018F4C13031F023C0C031E1
S113041091F0C034C9F01EC0E9EBF0E080818C7F1C
S113042080831DC0E9EBF0E080818D7F8083808133
S11304308160808314C0E9EBF0E080818E7F80834B
S11304408081826080830BC0E9EBF0E080818D6F56
S1130450808305C0E9EBF0E080818C7F808384E0B9
S11304608093BC00CF91089584E98093BC0080916F
S1130470BC0084FDFCCF0895CF93DF9394EA90935E
S1130480BC009091BC009923E4F79091B900987F47
S11304909830B1F590E0880F991F81608093BB007C
S11304A084E88093BC008091BC008823E4F7EB01CE
S11304B08091B900887F883421F40E94340281E05D
S11304C020C0803421F00E94340281E01AC084E804
S11304D08093BC008091BC008823E4F78091B9002C
S11304E0887F883531F0803521F00E94340281E024
S11304F008C08091BB0088830E943402888101C0B7
S113050081E0DF91CF9108950E948B026894B1112C
S11305100C941A0308950E94FF0288F09F5798F0E4
S1130520B92F9927B751B0F0E1F0660F771F881FF4
S1130530991F1AF0BA95C9F714C0B13091F00E940E
S11305401903B1E008950C941903672F782F8827B5
S1130550B85F39F0B93FCCF3869577956795B39535
S1130560D9F73EF490958095709561957F4F8F4FA4
S11305709F4F0895E89409C097FB3EF490958095A9
S1130580709561957F4F8F4F9F4F9923A9F0F92F55
S113059096E9BB279395F695879577956795B795D3
S11305A0F111F8CFFAF4BB0F11F460FF1BC06F5FB9
S11305B07F4F8F4F9F4F16C0882311F096E911C0CB
S11305C0772321F09EE8872F762F05C0662371F0EC
S11305D096E8862F70E060E02AF09A95660F771F00
S11305E0881FDAF7880F9695879597F9089557FD30
S11305F09058440F551F59F05F3F71F04795880F8D
S113060097FB991F61F09F3F79F087950895121623
S113061013061406551FF2CF4695F1DF08C01616CF
S113062017061806991FF1CF869571056105089480
S11306300895E894BB2766277727CB0197F9089597
S11306400E9433030C94A4030E94960338F00E9482
S11306509D0320F0952311F00C948D030C949303C7
S113066011240C941A030E94F70270F3959FC1F3AE
S1130670950F50E0551F629FF001729FBB27F00D4C
S1130680B11D639FAA27F00DB11DAA1F649F6627A1
S1130690B00DA11D661F829F2227B00DA11D621FF0
S11306A0739FB00DA11D621F839FA00D611D221FAA
S11306B0749F3327A00D611D231F849F600D211D8E
S11306C0822F762F6A2F11249F5750409AF0F1F011
S11306D088234AF0EE0FFF1FBB1F661F771F881F7A
S11306E091505040A9F79E3F510580F00C948D0322
S11306F00C941A035F3FE4F3983ED4F38695779500
S11307006795B795F795E7959F5FC1F7FE2B880F1F
S1130710911D9695879597F9089597F99F6780E8B5
S113072070E060E008959FEF80EC089500240A943F
S11307301616170618060906089500240A941216B8
S11307401306140605060895092E0394000C11F4EB
S1130750882352F0BB0F40F4BF2B11F460FF04C098
S11307606F5F7F4F8F4F9F4F089597FB072E16F4AF
S1130770009407D077FD09D00E94EB0307FC05D055
S11307803EF4909581959F4F0895709561957F4FA4
S11307900895A1E21A2EAA1BBB1BFD010DC0AA1FBE
S11307A0BB1FEE1FFF1FA217B307E407F50720F0D6
S11307B0A21BB30BE40BF50B661F771F881F991F51
S11307C01A9469F760957095809590959B01AC019A
S11307D0BD01CF010895AA1BBB1B51E107C0AA1F8D
S11307E0BB1FA617B70710F0A61BB70B881F991FCE
S11307F05A95A9F780959095BC01CD010895AEE076
S1130800B0E0E5E0F4E00C94F0060D891E898F89D0
S1130810988D26E02C831A83098397FF02C080E019
S113082090E801979E838D83AE01455E5F4F698D8D
S11308307A8DCE0101960E9451044D815E8157FD4F
S11308400AC02F813885421753070CF49A01F80126
S1130850E20FF31F10822E96E4E00C940C07AEE036
S1130860B0E0E5E3F4E00C94F0060D891E8986E01F
S11308708C831A8309838FEF9FE79E838D83AE0158
S1130880475E5F4F6F89788DCE0101960E945104B7
S1130890EF81F885E00FF11F10822E96E4E00C94AE
S11308A00C07ABE0B0E0E7E5F4E00C94E2066C0181
S11308B07B018A01FC0117821682838181FFCCC1EE
S11308C0CE0101963C01F6019381F70193FD8591D8
S11308D093FF81917F01882309F4BAC1853239F4E9
S11308E093FD859193FF81917F01853229F4B601AF
S11308F090E00E944806E7CF912C212C312CFFE197
S1130900F315D8F08B3279F038F4803279F08332F1
S1130910A1F4232D20611DC08D3261F0803369F470
S1130920232D216016C0832D8260382EE32DE460D0
S11309303E2E2AC0F32DF8601DC037FC2DC020EDDB
S1130940280F2A3040F08E32B9F436FC81C1232DB1
S11309502064322E19C036FE06C08AE0989E200D0F
S11309601124922E11C0EAE02E9E200D1124222E75
S1130970F32DF0623F2E08C08C3621F4832D80685D
S1130980382E02C0883641F4F70193FD859193FF18
S113099081917F018111B3CF982F9F7D955493301E
S11309A028F40C5F1F4F9FE399830DC0833631F009
S11309B0833771F0833509F059C021C0F801808173
S11309C089830E5F1F4F88248394912C530113C095
S11309D02801F2E04F0E511CF801A080B18036FED0
S11309E003C0692D70E002C06FEF7FEFC5010E9464
S11309F03D064C018201F32DFF773F2E16C02801DE
S1130A0022E0420E511CF801A080B18036FE03C0E2
S1130A10692D70E002C06FEF7FEFC5010E943206BE
S1130A204C01F32DF0683F2E820133FC1BC0822D54
S1130A3090E088169906B0F4B60180E290E00E9436
S1130A4048062A94F4CFF50137FC859137FE81914D
S1130A505F01B60190E00E94480621102A9421E02B
S1130A60821A91088114910471F7E8C0843611F058
S1130A70893641F5F80137FE07C0608171818281B2
S1130A8093810C5F1F4F08C060817181072E000C99
S1130A90880B990B0E5F1F4FF32DFF763F2E97FFA8
S1130AA009C090958095709561957F4F8F4F9F4FAA
S1130AB0F0683F2E2AE030E0A3010E948406882ECD
S1130AC0861845C0853731F4232D2F7EB22E2AE0B7
S1130AD030E025C0932D997FB92E8F36C1F018F4DC
S1130AE0883579F0B5C0803719F0883721F0B0C067
S1130AF0E92FE061BE2EB4FE0DC0FB2DF460BF2EC5
S1130B0009C034FE0AC0292F2660B22E06C028E090
S1130B1030E005C020E130E002C020E132E0F8011D
S1130B20B7FE07C060817181828193810C5F1F4F82
S1130B3006C06081718180E090E00E5F1F4FA301C9
S1130B400E948406882E8618FB2DFF773F2E36FEE2
S1130B500DC0232D2E7FA22E891458F434FE0BC011
S1130B6032FC09C0832D8E7EA82E05C0B82CA32C80
S1130B7003C0B82C01C0B92CA4FE0FC0FE01E80DBF
S1130B80F11D8081803321F49A2D997EA92E09C00C
S1130B90A2FE06C0B394B39404C08A2D867809F0EB
S1130BA0B394A3FC11C0A0FE06C0B21488F4280CB0
S1130BB0922C9B180EC0B21460F4B60180E290E04F
S1130BC00E944806B394F7CFB21418F42B1802C04D
S1130BD0982C212CA4FE10C0B60180E390E00E9462
S1130BE04806A2FE17C0A1FC03C088E790E002C03B
S1130BF088E590E0B6010CC08A2D867859F0A1FEF4
S1130C0002C08BE201C080E2A7FC8DE2B60190E055
S1130C100E944806891438F4B60180E390E00E94EB
S1130C2048069A94F7CF8A94F301E80DF11D808168
S1130C30B60190E00E9448068110F5CF222009F405
S1130C4042CEB60180E290E00E9448062A94F6CF94
S1130C50F6018681978102C08FEF9FEF2B96E2E128
S1130C600C94FE06FC010590615070400110D8F709
S1130C70809590958E0F9F1F0895FC0161507040E0
S1130C8001900110D8F7809590958E0F9F1F0895BD
S1130C900F931F93CF93DF93FB01238121FD03C0A7
S1130CA08FEF9FEF2CC022FF16C04681578124810D
S1130CB035814217530744F4A081B1819D012F5F10
S1130CC03F4F318320838C93268137812F5F3F4FA1
S1130CD03783268314C08B01EC01FB010084F1856A
S1130CE0E02D0995892BE1F6D80116968D919C91FA
S1130CF01797019617969C938E931697CE01DF91C2
S1130D00CF911F910F910895FA01AA27283051F12C
S1130D10203181F1E8946F936E7F6E5F7F4F8F4F28
S1130D209F4FAF4FB1E03ED0B4E03CD0670F781F87
S1130D30891F9A1FA11D680F791F8A1F911DA11D6C
S1130D406A0F711D811D911DA11D20D009F46894A5
S1130D503F912AE0269F11243019305D3193DEF64D
S1130D60CF010895462F4770405D4193B3E00FD003
S1130D70C9F7F6CF462F4F70405D4A3318F0495DEE
S1130D8031FD4052419302D0A9F7EACFB4E0A695D1
S1130D909795879577956795BA95C9F700976105F3
S1130DA0710508959B01AC010A2E06945795479549
S1130DB037952795BA95C9F7620F731F841F951F3E
S1130DC0A01D08952F923F924F925F926F927F924F
S1130DD08F929F92AF92BF92CF92DF92EF92FF9247
S1130DE00F931F93CF93DF93CDB7DEB7CA1BDB0BF3
S1130DF00FB6F894DEBF0FBECDBF09942A88398898
S1130E0048885F846E847D848C849B84AA84B9849E
S1130E10C884DF80EE80FD800C811B81AA81B981AA
S1130E20CE0FD11D0FB6F894DEBF0FBECDBFED01BE
S1090E300895F894FFCFC1
S1130E36300000000025642E25322E32640025641D
S1050E460000A6
S9030000FC
