S0100000414E47454C4C41422E73726563DE
S11300000C9434000C9451000C9451000C94510045
S11300100C9468000C9451000C9451000C94510001
S11300200C9451000C9451000C9451000C94510008
S11300300C9451000C9451000C9451000C945100F8
S11300400C9451000C9451000C9451000C945100E8
S11300500C9451000C9451000C9451000C945100D8
S11300600C9451000C94510011241FBECFEFD8E022
S1130070DEBFCDBF11E0A0E0B1E0E8EBF1E002C0EB
S113008005900D92A030B107D9F721E0A0E0B1E0CE
S113009001C01D92A130B207E1F70E947B000C94CD
S11300A0DA000C94000087B18E7F87B988B1816033
S11300B088B98AB18FEF8AB9E8E6F0E0808182607E
S11300C08083ECE6F0E080818160808378940895F9
S11300D01F920F920FB60F9211248F9380910001FB
S11300E0811103C081E0809300018F910F900FBEB6
S11300F00F901F9018950E94530080910001813049
S1130100E1F78BB11BB88BB18D668BB92FEF83EC04
S113011099E0215080409040E1F700C000008BB18D
S11301201BB88BB186668BB92FEF83EC99E0215015
S113013080409040E1F700C000008BB11BB88BB148
S11301408F648BB92FEF83EC99E02150804090406D
S1130150E1F700C000008BB11BB88BB18B658BB984
S11301602FEF83EC99E0215080409040E1F700C0EC
S113017000008BB11BB88BB186608BB92FEF83EC79
S113018099E0215080409040E1F700C000008BB11D
S11301901BB88BB18F638BB92FEF83EC99E021509F
S11301A080409040E1F700C000008BB11BB8109272
S10B01B00001A3CFF894FFCF76
S9030000FC
